:100000000C94D8010C9409020C9409020C94090276
:100010000C9409020C9409020C9409020C94090234
:100020000C9409020C9409020C9409020C94090224
:100030000C9409020C9409020C9409020C94090214
:100040000C9409020C9409020C9409020C94090204
:100050000C9409020C9409020C9409020C949C1B48
:100060000C9409020C94101C0C94E61B0C940902CD
:100070000C9409020C9409020C9409020C940902D4
:100080000C9409020C9409020C9409020C940902C4
:100090000C9409020C9409020C9409020C94461C5D
:1000A0000C9409020C9409020C9409020C940902A4
:1000B0000C9409020C9409020C9409020C94090294
:1000C0000C9409020C9409020C9409020C94090284
:1000D0000C9409020C9409020C9409020C94090274
:1000E0000C9409020C947D1A0C942A060C940110AD
:1000F0000C948C160C94B7170C9487130C94E91A73
:100100000C94A9020C94D9100C9474070C94550DFE
:100110000C943C100C94BB100C94F0100C948603BF
:100120000C94A0160C942D0F0C94CE020C949C0FE2
:100130000C945A050C94CF020C94E9040C94A00280
:100140000C94BB020C9433100C9453110C942D118D
:100150000C9469190C942B100C9474040C94BE0329
:100160000C943E100C9473190C9475070C94910325
:100170000C94F2070C94A0050C94B10A0C940D1980
:100180000C9498020C94C5040C94A9100C94D302FE
:100190000C945E060C9408060C940B020C94A302BB
:1001A0000C94E0180C94F40A0C94CD030C94B70250
:1001B0000C9437110C9417060C94DE180C949505CA
:1001C0000C94B10D0C9428050C9451290C94201119
:1001D0000C94F6180C94B3020C94C9020C94530AB4
:1001E0000C9496160C947B1E0C9485030C94E610CC
:1001F0000C94EC180C9431060C9427040C947E0F8C
:100200000C9472140C9490190C94310F0C94561198
:100210000C9402110C948E020C94731A0C94E1034A
:100220000C94EA0F0C94AA160C9494020C94870375
:100230000C9400190C94EF030C94A20F0C94B416B8
:100240000C942A0F0C949C020C94801A0C94D50FD9
:100250000C943D100C94AD020C94EA180C94070613
:100260000C9403190C94C5020C94550A0C948D1926
:100270000C9441050C9461190C94C1020C94FD1767
:100280000C9430020C949F0F0C948A1100002000F3
:100290002300260029002C002F003200000100005E
:1002A00003010601090100000A0B02090C0D0E08EA
:1002B000070304010000000000000000000000002F
:1002C000000000000000000000000000000000002E
:1002D00000001211100000000000000000000000EB
:1002E00000000000000000000000000000002200EC
:1002F000250028002B002E003100340002010000F0
:10030000050108010B0100002100240027002A003C
:100310002D003000330001010000040107010A0133
:1003200005050505070508080808020202020A0A71
:10033000080804040404010101010101010103038F
:10034000030303030303040707070C0C0C0C0C0C3A
:100350000C0C0202020206060606060606060B0B37
:100360000B0B0B0B0B0B0102102020080810204078
:100370001020408002010201080402010102040869
:1003800010204080804020100804020180040201F7
:100390008040201008040201080402010102040840
:1003A0001020408001020408102040807B1E51294B
:1003B00011241FBECFEFD1E2DEBFCDBF00E00CBFE6
:1003C00018E0A0E0B2E0EEEDFEE500E00BBF02C0F9
:1003D00007900D92A437B107D9F72CE0A4E7B8E055
:1003E00001C01D92A937B207E1F711E0C7EDD1E0D6
:1003F00000E006C021970109802FFE010E94292CF0
:10040000C63DD10780E00807A9F70E949C200C9404
:100410005D2F0C9400001F93CF93DF93182FC09192
:10042000170AD091180A8A3041F4E881F9810190C5
:10043000F081E02D6DE0CE011995E881F981019000
:10044000F081E02D612FCE01199521E030E0019778
:1004500011F430E020E0C901DF91CF911F910895A0
:10046000CF93DF93C091170AD091180AE881F981E0
:100470000084F185E02DCE011995892BB9F3E8812F
:10048000F9810284F385E02DCE01DF91CF9119949B
:10049000CF93DF9390E0FC01EA59FC4F2491805EFA
:1004A0009C4FFC0184918823C1F090E0880F991F34
:1004B000FC01EA5FFC4FC591D491FC01E451FD4F72
:1004C000A591B4919FB7F8948881E22FE0958E238F
:1004D00088838C91E823EC939FBFDF91CF9108959F
:1004E0008150823108F05AC0E82FF0E08827E458A4
:1004F000FD4F8F4F0C94292C9C02A0028E02940277
:100500009802CE02A302A902AD02B302B702BB0257
:10051000C102C502CE02C902CF02D302809180007F
:100520008F77809380000895809180008F7DF9CF30
:1005300080918000877FF5CF84B58F7784BD089543
:1005400084B58F7DFBCF8091B0008F778093B00012
:1005500008958091B0008F7DF9CF809190008F77C2
:10056000809390000895809190008F7DF9CF8091C5
:100570009000877FF5CF8091A0008F778093A000B7
:1005800008958091A0008F7DF9CF8091A000877F92
:10059000F5CF809120018F7780932001089580917D
:1005A00020018F7DF9CF80912001877FF5CFCF93F8
:1005B000DF93282F30E0F901EA55FD4F8491F901CE
:1005C000EA59FC4FD491F901E05EFC4FC491CC2371
:1005D000A1F081110E947002EC2FF0E0EE0FFF1FDE
:1005E000E457FD4FA591B491EC91ED2381E090E0AB
:1005F00009F480E0DF91CF91089580E090E0FACF98
:100600001F93CF93DF93282F30E0F901EA55FD4F78
:100610008491F901EA59FC4FD491F901E05EFC4F55
:10062000C491CC23A9F0162F81110E947002EC2FE7
:10063000F0E0EE0FFF1FE451FD4FA591B4918FB78D
:10064000F894EC91111108C0D095DE23DC938FBF94
:10065000DF91CF911F910895DE2BF8CF3FB7F8942B
:100660008091060A9091070AA091080AB091090AA0
:1006700026B5A89B05C02F3F19F00196A11DB11DFD
:100680003FBFBA2FA92F982F8827BC01CD01620F39
:10069000711D811D911D42E0660F771F881F991FF4
:1006A0004A95D1F708958F929F92AF92BF92CF92C1
:1006B000DF92EF92FF924B015C010E942E036B01CF
:1006C0007C010E942E036C197D098E099F09683EEA
:1006D000734081059105A8F321E0821A9108A108D1
:1006E000B10888EEC80E83E0D81EE11CF11C81140D
:1006F0009104A104B10429F7FF90EF90DF90CF900F
:10070000BF90AF909F908F9008950895089580E9CD
:1007100091E00895DC01ED91FC910190F081E02DD4
:100720001994AF92BF92CF92DF92EF92FF920F9304
:100730001F93CF93DF936C017B018B01040F151F77
:10074000EB015E01AE18BF08C017D10759F06991DF
:10075000D601ED91FC910190F081E02DC601199533
:10076000892B79F7C501DF91CF911F910F91FF90F0
:10077000EF90DF90CF90BF90AF900895FC01538D24
:10078000448D252F30E0842F90E0821B930B54176B
:1007900010F0CF96089501970895FC01918D828DF8
:1007A000981761F0A28DAE0FBF2FB11D5D968C9191
:1007B000928D9F5F9F73928F90E008958FEF9FEFD0
:1007C0000895FC01918D828D981731F0828DE80F8C
:1007D000F11D858D90E008958FEF9FEF0895FC0146
:1007E000918D228D892F90E0805C9F4F821B910913
:1007F0008F73992708958BE19AE00E94EF0321E01F
:10080000892B09F420E0822F0895FC01A48DA80F04
:10081000B92FB11DA35ABF4F2C91848D90E0019642
:100820008F739927848FA689B7892C93A089B18962
:100830008C91837080648C93938D848D981306C003
:100840000288F389E02D80818F7D80830895EF9267
:10085000FF920F931F93CF93DF93EC0181E0888F7A
:100860009B8D8C8D98131AC0E889F989808185FF4A
:1008700015C09FB7F894EE89FF896083E889F989EC
:1008800080818370806480839FBF81E090E0DF91EE
:10089000CF911F910F91FF90EF900895F62E0B8D41
:1008A00010E00F5F1F4F0F731127E02E8C8D8E11FC
:1008B0000CC00FB607FCFACFE889F989808185FF63
:1008C000F5CFCE010E940504F1CFEB8DEC0FFD2F8B
:1008D000F11DE35AFF4FF0829FB7F8940B8FEA891E
:1008E000FB8980818062CFCFCF93DF93EC01888D2D
:1008F0008823B9F0AA89BB89E889F9898C9185FD9B
:1009000003C0808186FD0DC00FB607FCF7CF8C9128
:1009100085FFF2CF808185FFEDCFCE010E940504D7
:10092000E9CFDF91CF91089580E090E0892B29F005
:100930000E94FB0381110E94000080E090E0892B5F
:1009400049F080E090E0892B29F00E94000081119D
:100950000E94000080E090E0892B49F080E090E068
:10096000892B29F00E94000081110E94000080E084
:1009700090E0892B49F080E090E0892B29F00E94DB
:10098000000081110C9400000895FF920F931F93B3
:10099000CF93DF938C01EB016F3F7607B9F0F62E12
:1009A000EAE06E1306C06DE0F801808991890E942B
:1009B0008A036F2DF801808991890E948A03CE01F4
:1009C000DF91CF911F910F91FF900895D0E0C0E08B
:1009D000F6CF7F928F929F92AF92BF92CF92DF928B
:1009E000EF92FF920F931F93CF93DF938C014901F6
:1009F0005A01EB01C12CD12C7601C814D904EA04A8
:100A0000FB04B4F479908AE0781206C06DE0F80136
:100A1000808991890E948A03672DF80180899189D4
:100A20000E948A03FFEFCF1ADF0AEF0AFF0AE5CF21
:100A3000C501B401DF91CF911F910F91FF90EF900D
:100A4000DF90CF90BF90AF909F908F907F90089550
:100A5000CF93DF93EC0188899989DC01ED91FC91BA
:100A60000084F185E02D1995892BA9F3888999894E
:100A7000DC01ED91FC910284F385E02DDF91CF91B3
:100A80001994CF93DF93EC0188899989DC01ED916A
:100A9000FC910084F185E02D1995892BA9F38889B3
:100AA0009989DC01ED91FC910484F585E02DDF91BD
:100AB000CF9119948F929F92AF92BF92CF92DF9273
:100AC000EF92FF920F931F93CF93DF938C01490115
:100AD0005A01EB01C12CD12C7601D80150968D9191
:100AE0009C91DC01ED91FC910284F385E02D199538
:100AF0008F3F61F0C814D904EA04FB043CF48993E5
:100B0000BFEFCB1ADB0AEB0AFB0AE7CFC701B6013E
:100B1000DF91CF911F910F91FF90EF90DF90CF90D9
:100B2000BF90AF909F908F900895DC0150968D916B
:100B30009C91DC01ED91FC910084F185E02D1994EC
:100B400008952091ED08260F3327331F21323105F8
:100B5000ECF420911109FC0190E080E0243069F070
:100B600082E00895A091ED082191AC014353574FC5
:100B7000A40FB52FB11D2C930196861798F3809181
:100B8000ED08680F6093ED0880E0089581E0089516
:100B90001092110981E0809313091092120961E00B
:100BA00084E10E94000361E085E10E940003E9EB1B
:100BB000F0E080818E7F808380818D7F808388E4D8
:100BC0008093B80085E48093BC000895CF93DF93B1
:100BD00091E09093CC088823B9F0C091B800D091EF
:100BE000BA008091BC008A7B8093BC0060E084E105
:100BF0000E94000360E085E10E9400030E94C80596
:100C0000D093BA00C093B800DF91CF9108950895B2
:100C1000E091000A8091FF09E81730F4F0E0E9550F
:100C2000F74F808190E008958FEF9FEF08959091A6
:100C3000000A8091FF092FEF3FEF981748F4E92F42
:100C4000F0E0E955F74F208130E09F5F9093000A74
:100C5000C90108958091FF099091000A891B990BA1
:100C60000895CF92DF92EF92FF920F931F93CF934D
:100C7000DF937C01CB018A012091A608222389F011
:100C8000EB016B01C40ED51ECC15DD0569F0699131
:100C9000D701ED91FC910190F081E02DC7011995EC
:100CA000F3CF642F0E94A105C801DF91CF911F915E
:100CB0000F91FF90EF90DF90CF900895CF93DF9347
:100CC0001F92CDB7DEB769832091A6082223F9F0E1
:100CD0002091FD09203258F021E030E0FC013383FF
:100CE000228390E080E00F90DF91CF910895809172
:100CF000FE09E82FF0E0EA57F74F998190838F5F64
:100D00008093FE098093FD0981E090E0ECCF61E0E3
:100D1000CE0101960E94A105F7CFCF92DF92EF920C
:100D2000FF920F931F93CF93DF93FC01C48121E0C7
:100D30002093A608C09385081092FE091092FD0921
:100D40008385682B88EB9AE00E945E06D091FD09AE
:100D5000D13208F092C00E942E036B017C01809179
:100D60001109811165C082E08093110981E08093AF
:100D700013098FEF8093100910923509D09334092D
:100D8000A6E8B8E0E4E1F9E080E0D81385C010926D
:100D9000360980913609CC0FC82BC0933609809153
:100DA0001209813009F07CC0109212090E942E03B2
:100DB0006B017C01809136098093BB008091C8084B
:100DC0009091C908A091CA08B091CB08892B8A2BB1
:100DD0008B2B99F00E942E030091C8081091C9082E
:100DE0002091CA083091CB086C197D098E099F09A2
:100DF0000617170728073907E0F18091BC0083FD2B
:100E0000D9CF85EC8093BC000E942E036B017C013E
:100E100080911109823009F445C0809110098F3FFB
:100E200061F180911009803241F18091100925C053
:100E30008091C8089091C908A091CA08B091CB08C8
:100E4000892B8A2B8B2B09F48ACF0E942E030091C9
:100E5000C8081091C9082091CA083091CB086C19B4
:100E60007D098E099F09061717072807390708F01B
:100E700076CF8091C7080E94E6051092FE09109275
:100E8000FD091092A608DF91CF911F910F91FF905D
:100E9000EF90DF90CF9008959D9191938F5F75CFE4
:100EA00085EEB0CF8091C8089091C908A091CA087A
:100EB000B091CB08892B8A2B8B2B09F4A9CF0E94E8
:100EC0002E030091C8081091C9082091CA083091DA
:100ED000CB086C197D098E099F090617170728078B
:100EE000390708F095CFC5CF089590E080E00895C8
:100EF0000F931F93CF93DF93209184082F5F322F9E
:100F000037703093840820FF2BC020E831FD206427
:100F1000347009F02062205FFC01EC01239600E0B0
:100F200011E06485662329F070E0C8010E94152C49
:100F30006F5F6187322F369F030E30E0311D112421
:100F4000311110C01682662311F06150618731960D
:100F5000EC17FD0731F7DF91CF911F910F910895A5
:100F600020E0D4CF31503683EECF0F931F93CF9331
:100F7000DF93209183082F5F322F377030938308DF
:100F800020FF2BC020E831FD2064347009F020627E
:100F9000205FFC01EC01239600E011E064856623EC
:100FA00029F070E0C8010E94152C6F5F6187322F15
:100FB000369F030E30E0311D1124311110C016820E
:100FC000662311F0615061873196EC17FD0731F708
:100FD000DF91CF911F910F91089520E0D4CF315030
:100FE0003683EECF4F925F927F928F929F92AF9215
:100FF000BF92CF92DF92EF92FF920F931F93CF9306
:10100000DF932C01EB010E942E03F201278530892A
:10101000621B730B6A307105B0F3F8948A819B816F
:10102000181619060CF0CDC1E881F9816EB1862E33
:10103000689485F83EB13F7D3EB9DA848F812D2DCD
:10104000281B822F2F834F85042E000C550BAA815D
:10105000BB817D85FC84EE847F5FF394E3949E8165
:101060009884B984AB841181C12C6C2D0C2D2C2D4E
:101070002181112788942111280F08F42FEF8195E1
:10108000889470FD120F1795889471FD120F1795B3
:10109000889472FD120F1795889473FD120F17959F
:1010A000889474FD120F1795889475FD120F17958B
:1010B000889476FD120F1795889477FD120F179577
:1010C0008894622F7111612F8D0D162F002C8EB810
:1010D00000C017FF3EB920816627889400C000C079
:1010E000002C3EB92111290F00C0002C8EB800C081
:1010F00016FF3EB908F42FEF9195889400C000C008
:10110000002C3EB9F0FC620F00C0002C8EB800C06D
:1011100015FF3EB967958894F1FC620F00C000C0CE
:10112000002C3EB96795889400C0002C8EB800C092
:1011300014FF3EB9F2FC620F6795889400C000C0AE
:10114000002C3EB9F3FC620F00C0002C8EB800C02A
:1011500013FF3EB967958894F4FC620F00C000C08D
:10116000002C3EB96795889400C0002C8EB800C052
:1011700012FF3EB9F5FC620F6795889400C000C06D
:10118000002C3EB9F6FC620F00C0002C8EB800C0E7
:1011900011FF3EB967958894F7FC620F00C000C04C
:1011A000002C3EB96795889400C0002C8EB800C012
:1011B00010FF3EB9122FF110162F9B0D00C000C07A
:1011C000002C3EB900C000C0002C8EB800C017FF34
:1011D0003EB922816627889400C000C0002C3EB929
:1011E0002111290D00C0002C8EB800C016FF3EB999
:1011F00008F42FEFE40FF51F00C000C0002C3EB92B
:10120000E0FC620F00C0002C8EB800C015FF3EB994
:1012100067958894E1FC620F00C000C0002C3EB9C5
:101220006795889400C0002C8EB800C014FF3EB9AA
:10123000E2FC620F6795889400C000C0002C3EB9A4
:10124000E3FC620F00C0002C8EB800C013FF3EB953
:1012500067958894E4FC620F00C000C0002C3EB982
:101260006795889400C0002C8EB800C012FF3EB96C
:10127000E5FC620F6795889400C000C0002C3EB961
:10128000E6FC620F00C0002C8EB800C011FF3EB912
:1012900067958894E7FC620F00C000C0002C3EB93F
:1012A0006795889400C0002C8EB800C010FF3EB92E
:1012B000122FE110162F919400C000C0002C3EB9EF
:1012C0009A0C00C000C08EB800C017FF3EB9218143
:1012D0006627889400C000C0002C3EB92111280F59
:1012E00000C0002C8EB800C016FF3EB908F42FEFE6
:1012F0008195889400C000C0002C3EB970FD620F3B
:1013000000C0002C8EB800C015FF3EB967958894C8
:1013100071FD620F00C000C0002C3EB96795889433
:1013200000C0002C8EB800C014FF3EB972FD620FE1
:101330006795889400C000C0002C3EB973FD620F11
:1013400000C0002C8EB800C013FF3EB9679588948A
:1013500074FD620F00C000C0002C3EB967958894F0
:1013600000C0002C8EB800C012FF3EB975FD620FA0
:101370006795889400C000C0002C3EB976FD620FCE
:1013800000C0002C8EB800C011FF3EB9679588944C
:1013900077FD620F00C000C0002C3EB967958894AD
:1013A00000C0002C8EB800C010FF3EB9122F711182
:1013B000162F8D0D00C000C0002C3EB9119709F00A
:1013C00086CE4A815B8120EE31E0DA010E94312C29
:1013D000DC01CB01F4E0B695A79597958795FA9532
:1013E000D1F730E020E0B901EAE94E9F040E611D1B
:1013F0005E9F600D711D1124650F711D860F971F73
:10140000A11DB11D893E43E09407A105B10508F473
:1014100034C0885E9340A109B10942E0B695A79512
:10142000979587954A95D1F747E0849F080E211D2F
:10143000949F200D311D1124290F311D60918208C8
:1014400070E0860F971F820F931F4091020A509100
:10145000030A6091040A7091050A292F3327420F6D
:10146000531F611D711D4093020A5093030A60933C
:10147000040A7093050A8093820878940E942E03D0
:10148000F201708B6787DF91CF911F910F91FF90D1
:10149000EF90DF90CF90BF90AF909F908F907F9014
:1014A0005F904F9008956D9A08956F927F928F92FA
:1014B000CF92DF92EF92FF920F931F93CF93DF9320
:1014C000CDB7DEB762970FB6F894DEBF0FBECDBFC3
:1014D0006C017A013801822EDC011C962C91CA0124
:1014E00057FF04C088279927841B950B7A8369834B
:1014F0009C838B839E838D836D867E868F86213031
:1015000049F5CE0101960E94780783E0888B1A8AFC
:10151000198AF7FE02C08DEF888BD601ED91FC9100
:101520000484F585E02DBE016F5F7F4FC6011995DC
:1015300062960FB6F894DEBF0FBECDBFDF91CF919C
:101540001F910F91FF90EF90DF90CF908F907F9041
:101550006F9008951C861B861A86198618861F822E
:10156000D4CFEF92FF920F931F93CF93DF93CDB71A
:10157000DEB762970FB6F894DEBF0FBECDBF7C0119
:10158000DC011C968C917A8369835C834B835E8338
:101590004D830D871E872F878130F9F4CE01019688
:1015A0000E947807188A1A8A198AD701ED91FC914E
:1015B0000484F585E02DBE016F5F7F4FC70119954B
:1015C00062960FB6F894DEBF0FBECDBFDF91CF910C
:1015D0001F910F91FF90EF9008951C861B861A862D
:1015E000198618861F82DECF4F925F927F928F926C
:1015F0009F92AF92BF92CF92DF92EF92FF920F93A2
:101600001F93CF93DF932C01EB010E942E03F20175
:1016100027853089621B730B6A307105B0F3F8942B
:101620008A819B81181619060CF0CDC1E881F981D9
:101630006EB1862E689485F83EB13F7D3EB9D9845F
:101640008E812D2D281B822F2E834F85042E000C7A
:10165000550BAA81BB817C85FD84EE847F5FF3946A
:10166000E3949F819884BA84AB841081C12C6C2D43
:101670000C2D2C2D2081112788942111280F08F47E
:101680002FEF8195889470FD120F1795889471FD46
:10169000120F1795889472FD120F1795889473FD99
:1016A000120F1795889474FD120F1795889475FD85
:1016B000120F1795889476FD120F1795889477FD71
:1016C000120F17958894622F7111612F8D0D162FAF
:1016D000002C8EB800C017FF3EB921816627889480
:1016E00000C000C0002C3EB92111290F00C0002C01
:1016F0008EB800C016FF3EB908F42FEF919588947C
:1017000000C000C0002C3EB9F0FC620F00C0002CED
:101710008EB800C015FF3EB967958894F1FC620F42
:1017200000C000C0002C3EB96795889400C0002C12
:101730008EB800C014FF3EB9F2FC620F6795889422
:1017400000C000C0002C3EB9F3FC620F00C0002CAA
:101750008EB800C013FF3EB967958894F4FC620F01
:1017600000C000C0002C3EB96795889400C0002CD2
:101770008EB800C012FF3EB9F5FC620F67958894E1
:1017800000C000C0002C3EB9F6FC620F00C0002C67
:101790008EB800C011FF3EB967958894F7FC620FC0
:1017A00000C000C0002C3EB96795889400C0002C92
:1017B0008EB800C010FF3EB9122FF110162F9B0DEE
:1017C00000C000C0002C3EB900C000C0002C8EB884
:1017D00000C017FF3EB922816627889400C000C070
:1017E000002C3EB92111290D00C0002C8EB800C07C
:1017F00016FF3EB908F42FEFE40FF51F00C000C03C
:10180000002C3EB9E0FC620F00C0002C8EB800C076
:1018100015FF3EB967958894E1FC620F00C000C0D7
:10182000002C3EB96795889400C0002C8EB800C08B
:1018300014FF3EB9E2FC620F6795889400C000C0B7
:10184000002C3EB9E3FC620F00C0002C8EB800C033
:1018500013FF3EB967958894E4FC620F00C000C096
:10186000002C3EB96795889400C0002C8EB800C04B
:1018700012FF3EB9E5FC620F6795889400C000C076
:10188000002C3EB9E6FC620F00C0002C8EB800C0F0
:1018900011FF3EB967958894E7FC620F00C000C055
:1018A000002C3EB96795889400C0002C8EB800C00B
:1018B00010FF3EB9122FE110162F919400C000C006
:1018C000002C3EB99A0C00C000C08EB800C017FFB3
:1018D0003EB920816627889400C000C0002C3EB924
:1018E0002111280F00C0002C8EB800C016FF3EB991
:1018F00008F42FEF8195889400C000C0002C3EB9F9
:1019000070FD620F00C0002C8EB800C015FF3EB9FC
:101910006795889471FD620F00C000C0002C3EB92D
:101920006795889400C0002C8EB800C014FF3EB9A3
:1019300072FD620F6795889400C000C0002C3EB90C
:1019400073FD620F00C0002C8EB800C013FF3EB9BB
:101950006795889474FD620F00C000C0002C3EB9EA
:101960006795889400C0002C8EB800C012FF3EB965
:1019700075FD620F6795889400C000C0002C3EB9C9
:1019800076FD620F00C0002C8EB800C011FF3EB97A
:101990006795889477FD620F00C000C0002C3EB9A7
:1019A0006795889400C0002C8EB800C010FF3EB927
:1019B000122F7111162F8D0D00C000C0002C3EB9E2
:1019C000119709F086CE4A815B8120EE31E0DA0181
:1019D0000E94312CDC01CB01F4E0B695A7959795D8
:1019E0008795FA95D1F730E020E0B901EAE94E9FFA
:1019F000040E611D5E9F600D711D1124650F711D28
:101A0000860F971FA11DB11D893E43E09407A105D4
:101A1000B10508F434C0885E9340A109B10942E0E1
:101A2000B695A795979587954A95D1F747E0849FF6
:101A3000080E211D949F200D311D1124290F311DE9
:101A40006091820870E0860F971F820F931F40916C
:101A5000020A5091030A6091040A7091050A292F25
:101A60003327420F531F611D711D4093020A50938B
:101A7000030A6093040A7093050A8093820878949D
:101A80000E942E03F201708B6787DF91CF911F9127
:101A90000F91FF90EF90DF90CF90BF90AF909F900D
:101AA0008F907F905F904F9008956F927F928F926A
:101AB000CF92DF92EF92FF920F931F93CF93DF931A
:101AC000CDB7DEB762970FB6F894DEBF0FBECDBFBD
:101AD0006C017A013801822EDC011C962C91CA011E
:101AE00057FF04C088279927841B950B7A83698345
:101AF0009C838B839E838D836D867E868F8621302B
:101B000049F5CE0101960E94B50783E0888B1A8AB9
:101B1000198AF7FE02C08DEF888BD601ED91FC91FA
:101B20000484F585E02DBE016F5F7F4FC6011995D6
:101B300062960FB6F894DEBF0FBECDBFDF91CF9196
:101B40001F910F91FF90EF90DF90CF908F907F903B
:101B50006F9008951C861B861A86198618861F8228
:101B6000D4CFEF92FF920F931F93CF93DF93CDB714
:101B7000DEB762970FB6F894DEBF0FBECDBF7C0113
:101B8000DC011C968C917A8369835C834B835E8332
:101B90004D830D871E872F878130F9F4CE01019682
:101BA0000E94B507188A1A8A198AD701ED91FC910B
:101BB0000484F585E02DBE016F5F7F4FC701199545
:101BC00062960FB6F894DEBF0FBECDBFDF91CF9106
:101BD0001F910F91FF90EF9008951C861B861A8627
:101BE000198618861F82DECF4F925F926F927F9286
:101BF0009F92AF92BF92CF92DF92EF92FF920F939C
:101C00001F93CF93DF9300D0CDB7DEB79C01220F97
:101C1000331F820F931FFC01E759F64F4083518316
:101C20006283D0900A0A80910D0A90910E0AA091C9
:101C30000F0AB091100A892B8A2B8B2BD9F00E94A6
:101C40002E0300917E0810917F082091800830912A
:101C50008108601B710B820B930B00910D0A109190
:101C60000E0A20910F0A3091100A6017710782073F
:101C70009307C8F20E942E0360937E0870937F083A
:101C80008093800890938108E091150AF091160ADC
:101C9000309759F04091110A5091120A6091130A3D
:101CA0007091140A8D2D1995D82EE0907C08F09033
:101CB0007D084D2C512C712C612CE114F10409F498
:101CC00059C0D7011C96CC901C9780910B0A90911B
:101CD0000C0A8436910510F41C961C92D701ED91E4
:101CE000FC91A280B38019821A821B82DD2079F1D7
:101CF000F701369610E000E02191222319F192803D
:101D0000992001F130E050E040E02F5F3F4F4F4F0E
:101D10005F4FC301B2010E94052C9B01AC01892DCC
:101D200090E0B0E0A0E0BC01CD016F5F7F4F8F4F2E
:101D30009F4F0E94052CA1E0B0E0AC0FBD1FA00F8B
:101D4000B11F8C930F5F1F4F03301105A9F6098156
:101D50001A812B81F7014585568562817381C70100
:101D6000F5011995D7011C96CC921C971496ED900D
:101D7000FC90A3CF80917A0890917B089C012F5F03
:101D80003F4F30937B0820937A0849970CF44AC060
:101D90008FB7F8942091020A3091030A4091040A07
:101DA0005091050A8FBF8091760890917708A09195
:101DB0007808B0917908281B390B4A0B5B0B21F48A
:101DC00021E030E040E050E0E0917A08F0917B08BB
:101DD00088EE93E0E89FB001E99F700DF89F700DC9
:101DE0001124072E000C880B990B0E94D42B3093E2
:101DF0000C0A20930B0A10927B0810927A082FB7D6
:101E0000F8948091020A9091030AA091040AB0917B
:101E1000050A2FBF8093760890937708A0937808DF
:101E2000B093790864EF71E080E090E00F900F903C
:101E30000F90DF91CF911F910F91FF90EF90DF9066
:101E4000CF90BF90AF909F907F906F905F904F909A
:101E50000C94530390E080E00895FC0185859685FD
:101E600008950F931F93CF93DF9300D0CDB7DEB7C4
:101E7000AB0119821A821B82DC01ED91FC91019069
:101E8000F081E02D00E010E020E0BE016F5F7F4FA9
:101E900019950F900F900F90DF91CF911F910F9197
:101EA0000895FC0182E693E091838083138212827D
:101EB0008FEF86838783808781878287838781E00E
:101EC0008487168615861582148280917C089091ED
:101ED0007D08892B21F4F0937D08E0937C08A09184
:101EE0007408B0917508109721F01596FC93EE9345
:101EF0001497F0937508E09374080895CB01089542
:101F0000CF93DF93EC01E881F9810288F389E02D1A
:101F100019958F3F980731F02D813E812F5F3F4FFC
:101F20003E832D83DF91CF9108958FEF9FEF08952A
:101F300060E070E0CB01089590E080E0089590E0CB
:101F400080E00895FC018789908D009739F02489FD
:101F500035892817390728F4308F278B6FEF7FEFEB
:101F600008C001976F3F760731F4908F878B70E040
:101F700060E0CB010895A089B189A80FB91F9B012A
:101F8000215031092F3F310538F4262F3C9132136F
:101F900005C0908F878BEDCF20E0F8CF278524FFF9
:101FA000DDCF908F878B6C93E4CFCF93DF93EC01E1
:101FB000E881F9810288F389E02D19958F3F980710
:101FC00031F02F89388D2F5F3F4F388F2F8BDF9166
:101FD000CF910895DC0157968D919C915897549616
:101FE0002D913C9155978217930740F45096ED91AF
:101FF000FC91E80FF91F808190E008958FEF9FEF2B
:102000000895EF92FF92CF93DF93FC01DB0160E034
:1020100070E0CB01E788F08CC489D589EC16FD0609
:10202000A8F4621773078407950784F4C089D189DF
:10203000CE0DDF1DC881CD936F5F7F4F8F4F9F4FB8
:10204000C789D08D2196D08FC78BE4CFDF91CF91F8
:10205000FF90EF900895FC01848995892789308D40
:10206000821B930B0895242FDC01ED91FC910084D9
:10207000F185E02D41E019940895089590E080E005
:1020800008951F93CF93DF93EC01162F8F8580FF68
:102090000BC0E881F9810084F185E02D20E144E066
:1020A00070E060E0CE011995EB85FC85812F90E012
:1020B0002D853E85E217F30758F410832B853C8568
:1020C0002F5F3F4F3C872B87DF91CF911F91089562
:1020D000E881F981028CF38DE02DBC01CE01DF9106
:1020E000CF911F9119948F929F92AF92BF92CF92EE
:1020F000DF92EF92FF920F931F93CF93DF938C01A8
:1021000049015A01EB01C12CD12C7601C814D90424
:10211000EA04FB0464F46991C8010E94411001962D
:1021200041F08FEFC81AD80AE80AF80AEFCF750114
:102130006401C701B601DF91CF911F910F91FF900C
:10214000EF90DF90CF90BF90AF909F908F900895C9
:102150000895DC01ED91FC9136970190F081E02D1E
:10216000E80FF91F80E493E0918380838AE493E091
:1021700093838283089520E433E0FC01318320833C
:102180002AE433E0338322830895FB0120813181E7
:10219000FC0131832083FB014281538126503109A8
:1021A000F90120813181820F931FFC01518340830B
:1021B000089520EC33E0FC01318320832AEC33E0E6
:1021C000358B248B64EB73E00C94C510DC01ED912E
:1021D000FC91369720813181820F931F0C94D91086
:1021E000DC01ED91FC9136970190F081E02DE80F34
:1021F000F91F8CE293E09183808386E393E09783D9
:10220000868308952CE233E0FC013183208326E3AA
:1022100033E0378326830895FB0120813181FC015F
:1022200031832083FB014281538126503109F9011A
:1022300020813181820F931FFC01518340830895D7
:1022400024EA33E0FC01318320832EEA33E0318F2E
:10225000208F68E973E00C940C11DC01ED91FC9186
:10226000369720813181820F931F0C942011CF93D8
:10227000DF93EC018EEE92E09983888382E093E015
:102280009987888788EF92E09F838E8360EE72E063
:10229000CE0106960E94C5106CED72E0CE01DF9172
:1022A000CF910C940C1106970C943711DC01ED9131
:1022B000FC91369720813181820F931F0C94371146
:1022C0000F931F93CF93DF938C01EB01888199814A
:1022D000D8018D939C932A853B850697DC01ED916F
:1022E000FC91E00FF11F318320838C859D85F801DF
:1022F000978386836A5F7F4FC80106960E94C51048
:10230000BE016E5F7F4FC801DF91CF911F910F918A
:102310000C940C110895FC0183899489892B11F088
:10232000658308956160FCCF8F929F92AF92BF92B8
:10233000EF92FF920F931F93CF93DF93EC017B01FA
:1023400049015A01E881F98136970190F081E02D29
:10235000E80FF91F03891489D8011F968C911F97E4
:1023600080FF0BC0ED91FC910084F185E02D20E110
:1023700044E070E060E0C8011995D801ED91FC914E
:10238000008CF18DE02DA5019401B701C8011995CC
:102390006F3F7F4F61F4E881F981369780819181A9
:1023A0008C0F9D1FFC01658162600E948B11CE0124
:1023B000DF91CF911F910F91FF90EF90BF90AF9061
:1023C0009F908F900895FB012481358150E040E07B
:1023D000608171810C949411CF93DF93EC01E881BB
:1023E000F98136970190F081E02DE80FF91F83897C
:1023F00094890E944110019661F4E881F981369731
:10240000808191818C0F9D1FFC01658162600E941B
:102410008B11CE01DF91CF9108954F925F926F9211
:102420007F928F929F92AF92BF92CF92DF92EF9264
:10243000FF920F931F93CF93DF93EC018B01290140
:102440003A01E881F98136970190F081E02DE80F9B
:10245000F91FC484D584E684F784C418D508E60837
:10246000F708838194818E709927049791F446012F
:102470005701181419041A041B04B4F1D701C6013A
:10248000F7FE03C080E090E0DC01C81AD90AEA0A2E
:10249000FB0AA3019201B801CE010E949411E881C8
:1024A000F98136970190F081E02DEC0FFD1F8381BB
:1024B00094818E709927029749F5E881F9813697C2
:1024C0000190F081E02DEC0FFD1F1C141D041E0473
:1024D0001F04E4F481E0C81AD108E108F10860891A
:1024E000CE010E94EC11E9CF81E0881A9108A10881
:1024F000B108E881F98136970190F081E02DEC0F69
:10250000FD1F6089CE010E94EC11B3CFE881F981F3
:10251000369780819181C80FD91F1C861D861E8623
:102520001F86DF91CF911F910F91FF90EF90DF9069
:10253000CF90BF90AF909F908F907F906F905F9063
:102540004F900895CF93DF93EC01E881F98136979E
:102550000190F081E02DE80FF91F83899489DC0157
:10256000ED91FC910484F585E02D1995019661F4B7
:10257000E881F9813697808191818C0F9D1FFC0144
:10258000658161600E948B11CE01DF91CF9108952A
:1025900021E0DC012C93DB01ED91FC9136978081E9
:1025A0009181680F791FFB0181899289009711F051
:1025B0000C94A21208950895CF92DF92EF92FF92A9
:1025C0000F931F93FB01DC0100E010E098016A010A
:1025D000F12CE12C0C151D052E053F0538F46191F9
:1025E0006D930F5F1F4F2F4F3F4FF4CF840F951FF9
:1025F0001F910F91FF90EF90DF90CF9008950F9370
:102600001F93CF938C01C62F0E948D066C2F6460A0
:10261000C8010E948D066C2F6B7FC8010E948D0639
:1026200083EC90E00197F1F7CF911F910F910895FE
:102630000F931F93CF938C01C62F607F0E94FF12D0
:1026400080E1C89FB0011124C801CF911F910F9163
:102650000C94FF120F931F93CF93DF93EC01623022
:1026600018F08D8188608D83688762E370E080E078
:1026700090E00E9453036B85CE010E948D0668EEA8
:1026800073E080E090E00E94530360E3CE010E947B
:10269000FF120BE416E4C8010197F1F760E3CE01E5
:1026A0000E94FF12C8010197F1F760E3CE010E947A
:1026B000FF1283E592E00197F1F760E2CE010E94FC
:1026C000FF126D816062CE010E94181384E08E8338
:1026D0006CE0CE010E94181361E0CE010E94181335
:1026E0000BE31FE1C8010197F1F782E08F8366E0F9
:1026F000CE010E94181362E0CE010E941813C80197
:102700000197F1F7DF91CF911F910F9108950F93EA
:102710001F93CF938C01C62F607F61600E94FF12D0
:1027200080E1C89FB00111246160C8010E94FF12BE
:1027300081E090E0CF911F910F910895DB012D91E1
:102740003C911197FC013183208312966D917C910D
:1027500026503109D901ED91FC91E80FF91F7183E1
:10276000608381E290E094838383548B438B158252
:10277000158A0895DB012D913C911197FC0131835D
:10278000208312966D917C9126503109D901ED91EB
:10279000FC91E80FF91F71836083DC0112961D9292
:1027A0001D921D921C92159781E290E09483838381
:1027B000548B438B1582158A0895EF92FF920F93E5
:1027C0001F93CF93DF93EC018B017A016E5F7F4FF4
:1027D0000E94BA13B8016A5F7F4FA701CE01069627
:1027E0000E949E13D8018D919C91119799838883A3
:1027F0001A962D913C910697DC01ED91FC91EC0F1E
:10280000FD1F31832083F801848595859F838E8306
:10281000DF91CF911F910F91FF90EF900895CF938B
:10282000DF93EC0188E090E09B838A831D821C8209
:102830000E94762A99838883DF91CF910895CF9360
:10284000DF93EC01AC01485F5F4F81E290E09FA312
:102850008EA318A619A61AA686E090E0A0E0B0E024
:102860008BA79CA7ADA7BEA71FA618AA19AA1AAA2C
:1028700082E793E09CA38BA380E28BAB1DAA1CAAEA
:1028800018AE5FAB4EAB6AEA72E0CE010E94DD1378
:1028900082EC92E09983888386ED92E09CA38BA3DF
:1028A0008CEC92E09F838E831C861B861E861D8681
:1028B000188A1F861A8A198A1C8A1B8A1E8A1D8AF0
:1028C0001F8A8AE093E099878887CE0148960E9404
:1028D0000F1418A21F8E1AA219A288E18F8BDF9104
:1028E000CF9108950E944C2CEF92FF920F931F936B
:1028F000CF93DF93CDB7DEB765970FB6F894DEBF01
:102900000FBECDBF8C017B01BC01CE0145960E945C
:10291000C812A701FF0C660B770BD801ED91FC9153
:1029200036970190F081E02DE00FF11F83819481B3
:1029300085FD59C086FF40C092FF58C086E294E0F2
:102940007F936F935F934F939F938F931F9284E135
:102950008F939E012F5F3F4F79013F932F930E94EA
:10296000712C9C01990F440B550BB701C8010E94B3
:102970000D12D801ED91FC9136970190F081E02D78
:10298000E00FF11F838194810FB6F894DEBF0FBE74
:10299000CDBF96FF03C0C8010E94A212C801659670
:1029A0000FB6F894DEBF0FBECDBFDF91CF911F9160
:1029B0000F91FF90EF90089587FF1BC09C01222785
:1029C000307292FF08C08FE294E0232B09F0B8CF59
:1029D00084E394E0B5CF89E394E0232B09F0B0CFF2
:1029E0008DE394E0ADCF82E294E0AACF8BE294E055
:1029F000A7CF90E080E0A4CFFB0101900020E9F791
:102A00003197AF01461B570BDC01ED91FC91028021
:102A1000F381E02D19948F929F92AF92BF920F9302
:102A20001F93CF93DF93CDB7DEB7A1970FB6F8947E
:102A3000DEBF0FBECDBF19A2423008F44AE08E01BE
:102A40000F5D1F4F842E912CB12CA12CA501940158
:102A50000E94D42BE62FB901CA01EA3004F5E05DEB
:102A6000D801EE938D01232B242B252B79F790E0B1
:102A700080E0109729F0BD018BE19AE00E94FC14E0
:102A8000A1960FB6F894DEBF0FBECDBFDF91CF91F8
:102A90001F910F91BF90AF909F908F900895E95C28
:102AA000DFCFCF92DF92EF92FF92CF93DF936C0153
:102AB000990FEE08FF08F7FE19C06DE28BE19AE06E
:102AC0000E948A03EC0166277727CB016C197D09E8
:102AD0008E099F094AE00E940B158C0F9D1FDF9104
:102AE000CF91FF90EF90DF90CF9008954AE0C7011B
:102AF000B601DF91CF91FF90EF90DF90CF900C94D3
:102B00000B15CF92DF92EF92FF92CF93DF936C0180
:102B1000990FEE08FF08F7FE21C06DE28BE19AE005
:102B20000E948A03EC0166277727CB016C197D0987
:102B30008E099F094AE00E940B15C80FD91F61E456
:102B400074E08BE19AE00E94FC148C0F9D1FDF91D2
:102B5000CF91FF90EF90DF90CF9008954AE0C701AA
:102B6000B6010E940B15EC01EACFCF93DF93D0E0C2
:102B7000C0E0009731F0BC018BE19AE00E94FC14A8
:102B8000EC0161E474E08BE19AE00E94FC148C0F8C
:102B90009D1FDF91CF9108956115710511F00C947F
:102BA000FC1490E080E00895AF92BF92CF92DF9244
:102BB000EF92FF920F931F93CF93DF93EC016B0182
:102BC0007A0184E494E00E94B515CE010E9451156B
:102BD00060E574E08BE19AE00E94CC15C6010E948A
:102BE000511560E574E08BE19AE00E94CC15C701B5
:102BF0000E9481158E01000F111F000F111F2CE084
:102C0000C216D1043CF15E010E0D1F1DE701CC0F71
:102C1000DD1FCE0DDF1DCC50D54FAC14BD0409F423
:102C200049C098012C5F3F4F790140E050E060E0DF
:102C3000C8013CE0A316B104A4F50E94F40D48813C
:102C400059816A81C7010E94F40D8FEFA81AB80A52
:102C50008701E3CF0E0D1F1D90E080E09701220F4A
:102C6000331FE20EF31EF701EC50F54F7F015C01BC
:102C7000F4E0AF0EB11CCC15DD05E1F040E050E012
:102C800060E0800F911F0E94F40D2196F7014081B2
:102C900051816281C501800F911F0E94F40DC50111
:102CA000E6CFC0970E94F40D488159816A81C8011E
:102CB0008C97C9CFDF91CF911F910F91FF90EF902B
:102CC000DF90CF90BF90AF900895EF92FF920F9357
:102CD0001F93CF93DF931F92CDB7DEB78C017B019B
:102CE000BC01CE0101960E94C812F701019000209C
:102CF000E9F73197EE19FF099F0150E040E0B70175
:102D0000C8010E940D12C8010F90DF91CF911F9151
:102D10000F91FF90EF900895CF93DF93EC010E9405
:102D20002011CE01DF91CF910C94122BDC01ED919B
:102D3000FC91369720813181820F931F0C948C1661
:102D4000CF93DF93EC010E94D910CE01DF91CF9198
:102D50000C94122BDC01ED91FC913697208131818E
:102D6000820F931F0C94A0160C94122B0F931F9399
:102D7000CF93DF93EC01CB01088119817B836A83B8
:102D8000009711F481E090E00E94762A998388836D
:102D9000F801CF01801B910B2C813D818217930795
:102DA00050F4A881B981A80FB91F109711F0808144
:102DB0008C933196EECFC801DF91CF911F910F9187
:102DC0000C94122BEF92FF920F931F93CF93DF93EC
:102DD000EC018C819D818617970740F57A018B0164
:102DE0008A819B818617970740F4685F7F4F86171B
:102DF000970718F4CE010E94B6168C819D8180172A
:102E0000910758F4E881F981E80FF91F309719F01C
:102E1000D7012C9120830196F2CF1D830C83DF9183
:102E2000CF911F910F91FF90EF9008956817790748
:102E3000B0F77D836C83F3CFEF92FF920F931F93D4
:102E4000CF93DF931F92CDB7DEB78C017B010E9439
:102E50000F14F701648175811982AE014F5F5F4FD6
:102E6000C8010E94E216F80144815581F701608192
:102E70007181F801808191810E94DC120F90DF91B5
:102E8000CF911F910F91FF90EF900895CF92DF9215
:102E9000EF92FF920F931F93CF93DF931F92CDB7C3
:102EA000DEB77C016B01FC0184819581892B11F0D7
:102EB00015821482F60101900020E9F731978F0105
:102EC0000C191D091982AE014F5F5F4FB801C70190
:102ED0000E94E216A801B601F701808191810E944B
:102EE000DC12C7010F90DF91CF911F910F91FF90DE
:102EF000EF90DF90CF900895AF92BF92CF92DF9284
:102F0000EF92FF920F931F93CF93DF931F92CDB752
:102F1000DEB77C016B010E940F14F60101900020C6
:102F2000E9F731978F010C191D09F701A480B580CD
:102F30001982B8016A0D7B1DAE014F5F5F4FC7015B
:102F40000E94E216F70180819181A801B6018A0DE5
:102F50009B1D0E94DC120F90DF91CF911F910F916A
:102F6000FF90EF90DF90CF90BF90AF900895EF92D9
:102F7000FF920F931F93CF93DF931F92CDB7DEB7CE
:102F80008C017B016F3F7F4F89F1D8011F968C9197
:102F90001F9784FF2EC059968D919C915A975496F5
:102FA0006D917C91559786179707C8F0E9826F5FFE
:102FB0007F4FAE014F5F5F4FC80140960E94E216FF
:102FC000F801818D928D0196928F818FC7010F90AC
:102FD000DF91CF911F910F91FF90EF900895509640
:102FE000ED91FC91E80FF91FE082EACFF12CE12C82
:102FF000EDCFEE24EA94FE2CE9CFEF92FF920F93EF
:103000001F93CF93DF931F92CDB7DEB7FC01822FC2
:103010008870922F90712871283131F4423009F074
:103020003FC08FEF9FEF23C0413049F58B012489CA
:10303000358920173107A8F3882311F0108F078BEB
:103040009923A1F07F011982AE014F5F5F4FB80154
:10305000CF0140960E94E216F7018489958927895D
:10306000308D8217930710F4908F878BC8010F90D3
:10307000DF91CF911F910F91FF90EF900895423013
:1030800089F404891589060F171F911102C010E0F9
:1030900000E0882361F20789108D060F171FC7CF44
:1030A000413021F204891589F8CFCF93DF93EC01E9
:1030B0006C817D816F5F7F4F8A819B818617970727
:1030C00018F4CE010E94B616E881F9818C819D81A9
:1030D000E80FF91F108288819981DF91CF910895BF
:1030E000CF92DF92EF92FF920F931F93CF93DF93D4
:1030F00000D000D01F921F92CDB7DEB77C016B01CC
:10310000042F122F63E574E08BE19AE00E94CC1546
:10311000C6010E9455180E94B5152CE02E9DC001D5
:103120002F9D900D11249C012C53354F790161E0A6
:10313000C9010E94181362E370E080E090E00E94F1
:103140005303212F88E0EAE0F2E0DE0111960190BE
:103150000D928A95E1F7F7018085811710F42FEF22
:10316000280F30E0220F331F81E090E08C0F9D1F6D
:10317000280F391FF9016081600F6068C7010E9444
:103180001813C6010E945518BC01C7010E94CC1536
:1031900060ED77E080E090E028960FB6F894DEBF0F
:1031A0000FBECDBFDF91CF911F910F91FF90EF9098
:1031B000DF90CF900C9453030C94122B0C94122B91
:1031C000DC01ED91FC91369720813181820F931FB4
:1031D0000C94DE180C94122BDC01ED91FC913697C7
:1031E00020813181820F931F0C94EA18CF93DF93D3
:1031F000EC010E943711CE01DF91CF910C94122B7C
:1032000006970C94F618DC01ED91FC91369720811D
:103210003181820F931F0C94F6180C94122BFC0131
:10322000808191810C94122B0F931F93CF93DF9386
:10323000CDB7DEB72F970FB6F894DEBF0FBECDBF68
:103240008C0183E090E0F8019783868384EB9BE018
:103250009583848384859585019695878487AE01BF
:103260004F5F5F4F6EE574E0CE0108960E947C17B9
:10327000AE01415F5F4FBE01685F7F4FCE01019697
:103280000E941C1730E020E050E040E0BE016F5F7C
:103290007F4FF801808191810E947018CE010196C4
:1032A0000E940F19CE0108960E940F192F960FB693
:1032B000F894DEBF0FBECDBFDF91CF911F910F916C
:1032C00008952AE033E0FC013183208340960C947A
:1032D0000F19CF93DF93EC010E946119CE01DF91AA
:1032E000CF910C94122BCF93DF93EC0182EC92E000
:1032F0009983888386ED92E09CA38BA38CEC92E06B
:103300009F838E83CE0108960E9461196AEA72E05B
:10331000CE01DF91CF910C94601106970C94731934
:10332000DC01ED91FC91369720813181820F931F52
:103330000C947319EF92FF920F931F93CF93DF9327
:10334000CDB7DEB7C154D1090FB6F894DEBF0FBEBA
:10335000CDBF8C017B0184E794E00E94B515F80194
:1033600086819781B701680F791F778366834081D3
:1033700051810E94D415F801868197818C30910586
:1033800084F10C97978386838281938188539F4F22
:1033900093838283AE01465C5F4F62E874E0CE01A6
:1033A00001960E947C17AE014F5B5F4FBE016F5FBD
:1033B0007F4FCE01CA960E941C1721E030E041E009
:1033C00050E0BE01665C7F4FF801808191810E94D0
:1033D0007018CE01CA960E940F19CE0101960E9464
:1033E0000F1964E974E08BE19AE00E94CC15F801B2
:1033F000848195810E945518FC0160818BE19AE0DF
:103400000E948A0361E474E08BE19AE00E94FC145C
:10341000F801268137814FE0429FC001439F900D04
:1034200011248050954F9583848365EA74E08BE185
:103430009AE00E94CC15F801848195810E9455186C
:10344000FC0160818BE19AE00E948A0361E474E0F0
:103450008BE19AE00E94FC1468E1CE0101960E9483
:103460001F1460E0CE0184960E948B116BEB74E018
:10347000CE0107960E946516F801648175810E944D
:10348000E31169EC76E00E946516AE014F5B5F4F79
:10349000BE01675E7F4FCE01CA960E941C1730E0C6
:1034A00020E050E040E0BE01665C7F4FF801808183
:1034B00091810E947018CE01CA960E940F19CE0108
:1034C00001960E94731990E080E0CF5BDF4F0FB64A
:1034D000F894DEBF0FBECDBFDF91CF911F910F914A
:1034E000FF90EF900895CF93DF93EC010E94731942
:1034F000CE01DF91CF910C94122B06970C94731A86
:10350000DC01ED91FC91369720813181820F931F70
:103510000C94731A0C94122B85ED8093BC0080914F
:10352000C8089091C908A091CA08B091CB08079625
:10353000A11DB11D23E0B695A795979587952A956E
:10354000D1F72091BC0024FD03C010921109089509
:103550004091C8085091C9086091CA087091CB0881
:10356000452B462B472B69F30097A105B10541F088
:103570002AE22A95F1F700C00197A109B109E1CF2C
:103580008091C7080C94E6050F931F93CF93DF93A8
:10359000EB0109900020E9F72197C61BD70BFC012E
:1035A00004811581AE010C171D0708F4A801FC0168
:1035B000808191810E94632C892B11F080E004C0EE
:1035C00081E0C017D107D1F7DF91CF911F910F9103
:1035D00008952F923F924F925F926F927F928F92B7
:1035E0009F92AF92BF92CF92DF92EF92FF920F9392
:1035F0001F93CF93DF93CDB7DEB72C970FB6F89418
:10360000DEBF0FBECDBF6C018B0129013A0149011C
:10361000FC01A18CB28CCE0101960E940F14FFEF29
:103620004F165F0611F40E944C2CF8018081181689
:1036300084F41886AE01485F5F4FB201CE01019657
:103640000E94E2164D815E81B80189819A810E94B3
:10365000DC12F601048915890A151B0520F31801EF
:103660002A183B0872012814390408F471018D806E
:103670009E800E191F09C40180959095081719079F
:1036800090F6080D191DC60140969C878B87E8149B
:10369000F90438F41986AE01475F5F4FB8010E9404
:1036A000E216F60180899189A1014E195F09B501E1
:1036B0006E0D7F1D680F791F9501280D391D820F32
:1036C000931F0E94512C69817A81F601808991892A
:1036D000A4018A0D9B1D0E94DC121A86AE01465F72
:1036E0005F4FB8018B859C850E94E216CE01019642
:1036F0000E940F19F601818D928D840D951D928F78
:10370000818FC301B2012C960FB6F894DEBF0FBEB5
:10371000CDBFDF91CF911F910F91FF90EF90DF9080
:10372000CF90BF90AF909F908F907F906F905F9061
:103730004F903F902F9008951F920F920FB60F92C7
:1037400011242F933F938F939F93AF93BF938091B7
:10375000020A9091030AA091040AB091050A3091DF
:10376000010A23E0230F2D3758F50196A11DB11D45
:103770002093010A8093020A9093030AA093040AFB
:10378000B093050A8091060A9091070AA091080A51
:10379000B091090A0196A11DB11D8093060A90936C
:1037A000070AA093080AB093090ABF91AF919F91AD
:1037B0008F913F912F910F900FBE0F901F901895F2
:1037C00026E8230F0296A11DB11DD2CF1F920F92A2
:1037D0000FB60F9211240BB60F922F933F934F9376
:1037E0005F936F937F938F939F93AF93BF93EF9369
:1037F000FF938BE19AE00E940504FF91EF91BF9146
:10380000AF919F918F917F916F915F914F913F9178
:103810002F910F900BBE0F900FBE0F901F90189519
:103820001F920F920FB60F9211240BB60F922F9387
:103830008F939F93EF93FF93E0912B0AF0912C0AC3
:103840008081E091310AF091320A82FD1DC09081A1
:103850008091340A8F5F8F732091350A821741F06F
:10386000E091340AF0E0E55EF54F958F8093340ADD
:10387000FF91EF919F918F912F910F900BBE0F9021
:103880000FBE0F901F9018958081F2CF1F920F925C
:103890000FB60F9211240BB60F922F933F934F93B5
:1038A0005F936F937F938F939F93AF93BF93EF93A8
:1038B000FF938091B900887F803609F44DC008F0ED
:1038C00040C0883209F4A9C028F5803109F49DC0B0
:1038D000C8F4882309F4FBC0883009F496C0FF912E
:1038E000EF91BF91AF919F918F917F916F915F9178
:1038F0004F913F912F910F900BBE0F900FBE0F90E5
:103900001F901895883109F488C0803241F7809360
:10391000100914C0803409F49DC040F48033B9F319
:103920008833E9F68093100985ECB0C0803509F43E
:1039300085C0883509F496C0883489F60E948C1AAF
:10394000CECF883909F48CC038F5883729F050F487
:10395000883611F0803719F683E0809311091092B0
:103960000F0957C0883809F47BC0803919F08038B6
:1039700009F0B5CF80910F09803208F071C0E09155
:103980000F0981E08E0F80930F098091BB00F0E05A
:10399000E151F74F80833DC0803B39F0E0F4803A3D
:1039A00009F479C0883A09F09ACF84E0809311092C
:1039B0001092EE081092ED08E091FB09F091FC09DD
:1039C00019958091ED0881110FC081E08093ED0879
:1039D0001092CD0809C0803C09F4A6CF883C09F4B8
:1039E000A3CF883B09F07BCFE091EE0881E08E0FFA
:1039F0008093EE08F0E0E353F74F80818093BB00A3
:103A00009091EE088091ED0829C08091360980934D
:103A1000BB0085EC8093BC0062CF9091350980910A
:103A20003409981758F5E091350981E08E0F80939D
:103A30003509F0E0EC5EF64F8081E9CFE091350981
:103A400081E08E0F809335098091BB00F0E0EC5E41
:103A5000F64F808390913509809134099817C8F208
:103A600085E8D8CFE091350981E08E0F8093350944
:103A70008091BB00F0E0EC5EF64F808380911309EB
:103A800081115CCF81E08093120984EA8093BC00AD
:103A90001092110924CF85EC8093BC00109211097B
:103AA00080910F09803230F4E0910F09F0E0E1518C
:103AB000F74F108260910F0970E0E091F909F091E1
:103AC000FA098FEE98E0199510920F0908CF10921D
:103AD000100934CFCF93DF93EC0182EC91E09B830C
:103AE0008A831F821E821B861A861D861C8680E0A2
:103AF0009BE09D838C8379836883660F771FFB012E
:103B0000EE0FFF1FE25BFC4F808191818E879F87C4
:103B1000660F771FFB01E05BFC4F20813181398B01
:103B2000288B0E9448028889DF91CF910C9448022B
:103B3000CF93DF93C7E1DCE081E290E0988F8F8B39
:103B4000198E1A8E1B8E86E090E0A0E0B0E08C8F7C
:103B50009D8FAE8FBF8F18A219A21AA21BA282E757
:103B600093E09D8B8C8B80E28CA31EA21DA219A6D4
:103B700089E19CE098A78FA3AC0164EB73E0CE01D0
:103B80000E949E1380EC93E0998388838AEC93E0F3
:103B90009D8B8C8B1E821D8218861F821A86198629
:103BA0001C861B861E861D86188A1F868AE793E060
:103BB0009B838A838BE19AE09B8B8A8B80E1898B44
:103BC000DF91CF910895CF93DF93C1E4DCE081E2F0
:103BD00090E09C8F8B8F1D8E1E8E1F8E86E090E056
:103BE000A0E0B0E088A399A3AAA3BBA31CA21DA236
:103BF0001EA21FA282E793E0998F888F80E288A798
:103C00001AA619A61DA687E49CE09CA78BA7AC0169
:103C100068E973E0CE010E94BA1384EA93E09983C5
:103C200088838EEA93E0998F888F1A8619861C867E
:103C30001B861E861D86188A1F861A8A198A1C8A68
:103C40001B8A8AE793E09F838E838BE19AE09F8BA8
:103C50008E8B88E08D8BDF91CF910895AF92BF92CC
:103C6000CF92DF92EF92FF920F931F93CF93DF9348
:103C70001F92CDB7DEB78C017B015A0169010E940A
:103C80000F148FEF9FEFF80196878587D486C38640
:103C90000E151F05D1F084819581892B11F01582B5
:103CA0001482F701648175811982AE014F5F5F4F05
:103CB000C8010E94E216F70144815581608171813B
:103CC000F801808191810E94DC12CD2829F0C80181
:103CD0000D96F80190878783F801B286A1860F9030
:103CE000DF91CF911F910F91FF90EF90DF90CF90D8
:103CF000BF90AF9008958F929F92AF92BF92CF9254
:103D0000DF92FF920F931F93CF93DF9300D000D0E9
:103D10001F921F92CDB7DEB70BE11AE0F8011382B4
:103D2000128288EE882E83E0982EA12CB12C8482FA
:103D30009582A682B78286EF93E09183808385EC9B
:103D400090E09587848784EC90E09787868780EC65
:103D500090E0918B808B81EC90E0938B828B82EC56
:103D600090E0958B848B86EC90E0978B868B118E00
:103D7000128E138E148EEAE0FAE0FF24FA94F08299
:103D800012821182148613868FEF9FEFDC018783E6
:103D90009087A187B287B80187E19CE00E94981DB7
:103DA000B80181E49CE00E94E31D97E1C92E9AE0EE
:103DB000D92EF601138212821183008360E372E030
:103DC0008BE092E00E940F2AF60193838283E8EB56
:103DD000FAE01382128284829582A682B78288E0FA
:103DE00094E091838083E4EFFAE0108280E881839D
:103DF0001282F3821482158216821782F0868187DE
:103E000012868387E4ECFAE0138212824AE154E0DE
:103E10005183408397E2948324E1218794E0928741
:103E20001386178616865587448736E2308B258B96
:103E3000968B178A138E128E518F408F35E2348FF6
:103E400021A392A313A217A216A255A344A333E25F
:103E500030A725A796A717A6EBE0FCE01082818388
:103E60001282F3821482158216821782F08681876D
:103E70001286838770E060E083EC9BE00E946A1DFD
:103E800061E070E085ED9BE00E946A1D62E070E0F9
:103E900087EE9BE00E946A1D63E070E089EF9BE083
:103EA0000E946A1DAE01485F5F4F6DEC74E0CE0169
:103EB00001960E947C1730E020E050E040E0BE0117
:103EC0006F5F7F4F84EB9BE00E942E1ECE01019618
:103ED0000E940F19AE01485F5F4F62ED74E0CE01A2
:103EE00001960E947C1730E020E048E35FEFBE01BE
:103EF0006F5F7F4F80E09BE00E942E1ECE010196F7
:103F00000E940F19AE01485F5F4F65ED74E0CE016E
:103F100001960E947C172CE330E044E050E0BE01A3
:103F20006F5F7F4F8FE09BE00E942E1ECE010196B7
:103F30000E940F19AE01485F5F4F63EE74E0CE013F
:103F400001960E947C1730E020E050E040E0BE0186
:103F50006F5F7F4F8EE19BE00E942E1ECE01019687
:103F60000E940F19AE01485F5F4F6AEE74E0CE0108
:103F700001960E947C1730E020E050E040E0BE0156
:103F80006F5F7F4F8DE29BE00E942E1ECE01019657
:103F90000E940F19AE01485F5F4F68EF74E0CE01D9
:103FA00001960E947C172CE830E04AE050E0BE0108
:103FB0006F5F7F4F8CE39BE00E942E1ECE01019627
:103FC0000E940F19AE01485F5F4F66E075E0CE01B9
:103FD00001960E947C1724EB30E04EE050E0BE01D9
:103FE0006F5F7F4F8BE49BE00E942E1ECE010196F7
:103FF0000E940F19AE01485F5F4F6FE075E0CE0180
:1040000001960E947C1730E020E050E040E0BE01C5
:104010006F5F7F4F8AE59BE00E942E1ECE010196C6
:104020000E940F19AE01485F5F4F67E175E0CE0156
:1040300001960E947C172CED30E042E150E0BE0179
:104040006F5F7F4F89E69BE00E942E1ECE01019696
:104050000E940F19AE01485F5F4F67E275E0CE0125
:1040600001960E947C1728E131E048E150E0BE0152
:104070006F5F7F4F88E79BE00E942E1ECE01019666
:104080000E940F19AE01485F5F4F65E375E0CE01F6
:1040900001960E947C1730E020E050E040E0BE0135
:1040A0006F5F7F4F87E89BE00E942E1ECE01019636
:1040B0000E940F19AE01485F5F4F6AE375E0CE01C1
:1040C00001960E947C172CE231E04AE150E0BE01EB
:1040D0006F5F7F4F86E99BE00E942E1ECE01019606
:1040E0000E940F19AE01485F5F4F69E475E0CE0191
:1040F00001960E947C1720E931E042E350E0BE01C6
:104100006F5F7F4F85EA9BE00E942E1ECE010196D5
:104110000E940F1928960FB6F894DEBF0FBECDBFD0
:10412000DF91CF911F910F91FF90DF90CF90BF90C3
:10413000AF909F908F900895CF93DF93CDB7DEB768
:10414000CB59D1090FB6F894DEBF0FBECDBF78941E
:1041500084B5826084BD84B5816084BD85B582608C
:1041600085BD85B5816085BD80916E00816080933D
:104170006E001092810080918100826080938100A6
:1041800080918100816080938100809180008160B6
:10419000809380008091B10084608093B100809111
:1041A000B00081608093B000809191008260809324
:1041B00091008091910081608093910080919000A6
:1041C0008160809390008091A10082608093A10023
:1041D0008091A10081608093A1008091A000816006
:1041E0008093A000809121018260809321018091C1
:1041F0002101816080932101809120018160809361
:10420000200180917A00846080937A0080917A0006
:10421000826080937A0080917A00816080937A0036
:1042200080917A00806880937A001092C10086E3C2
:104230000E94480280917B00877F80937B0080E40E
:1042400080937C0080917A00806480937A008091D2
:104250007A0086FDFCCF6091780070917900072E7E
:10426000000C880B990B611571058105910511F002
:104270000E94062AE0912B0AF0912C0A82E08083AA
:10428000E091270AF091280A1082E091290AF09122
:104290002A0A8FEC80831092330AE0912F0AF09162
:1042A000300A86E08083E0912D0AF0912E0A808109
:1042B00080618083E0912D0AF0912E0A80818860D0
:1042C0008083E0912D0AF0912E0A8081806880839E
:1042D000E0912D0AF0912E0A80818F7D808380915C
:1042E0004809811111C087E399E00E94510F109293
:1042F00047091092460982ED93E090933809809324
:10430000370981E08093480987E399E00E94530AC6
:1043100089E699E090933A098093390980E390E027
:10432000909345098093440980910D0A90910E0A5B
:10433000A0910F0AB091100A843C29E09207A105D0
:10434000B10520F484EC99E0A0E0B0E080930D0A80
:1043500090930E0AA0930F0AB093100A80916109FE
:10436000811111C080E599E00E94510F10926009FF
:1043700010925F0984EE93E0909351098093500965
:1043800081E08093610980E599E00E94530A89E603
:1043900099E0909353098093520980E390E09093C1
:1043A0005E0980935D0980910D0A90910E0AA0919B
:1043B0000F0AB091100A843C39E09307A105B105BA
:1043C00020F484EC99E0A0E0B0E080930D0A909393
:1043D0000E0AA0930F0AB093100A10E000E0F80153
:1043E000EE0FFF1FE00FF11FE55FF34F408151819A
:1043F0006281C8010E94F40D0F5F1F4F0430110548
:1044000071F704EC1AE024EFE22E2AE0F22E35E8F0
:10441000832E33E0932E46E8A42E43E0B42E58E0DA
:10442000D52E1092000A1092FF091092FE091092E8
:10443000FD090E94C8059092FC098092FB09B09288
:10444000FA09A092F909D80115961C9215971A96A7
:104450006C91C8010E942A13F801D38660E0C8015C
:104460000E948D0664E0C8010E942A13D8011796A5
:104470006C911797862F826017968C936660C8019F
:104480000E941813045F1F4FE016F10651F68E01CB
:104490000D581F4F9AE3292E312C2C0E3D1EB3E2EE
:1044A0002B0E311CF12CE12CEAE3F0E0EC0FFD1FA8
:1044B000B396CA56DF4FF983E883C659D0402AE342
:1044C00030E02C0F3D1F2A5F3F4FC856DF4F398326
:1044D0002883C859D0404AE350E04C0F5D1F485E26
:1044E0005F4FC656DF4F59834883CA59D04068E1B1
:1044F000CE01CA960E941F1460E0CA56DF4F888121
:104500009981C659D0400E948B1164E575E0C85668
:10451000DF4F88819981C859D0400E946516B70144
:104520006F5F7F4F0E94741463E675E00E9465160A
:10453000A801C656DF4F68817981CA59D040CE01A3
:1045400001960E941C1730E020E050E040E0BE01E0
:104550006F5F7F4FC7010E947018CE0101960E94C5
:104560000F1980E795E00E94B51568E873E180E0D7
:1045700090E00E94530322E12E9DC0012F9D900DDB
:104580001124DC01AD53B44F4D011C968D919C91CB
:10459000181619060CF082C2CE0189579F4F0E944F
:1045A0000F14C557DF4F88819981CB58D040892B94
:1045B00031F0C557DF4F19821882CB58D04022E125
:1045C0002E9DC0012F9D900D1124FC01ED53F44F41
:1045D0005F018485958504970CF44DC169E775E00A
:1045E000CE0189579F4F0E944617A801BE01695707
:1045F0007F4FCE0101960E941C1730E020E050E072
:1046000040E0BE016F5F7F4FC7010E947018CE016E
:1046100001960E940F194501FEE08F0E911CD401F6
:104620008C910E94D702892BD1F3F501828193816D
:10463000C2979383828315861486DD24D394CE019A
:1046400089579F4F0E940F1982E1982E9E9CC001AE
:104650009F9C900D11249C012D53344F5901D90179
:104660001496ED91FC910780F085E02D309709F4C8
:1046700055C580819181019609F08DC487E397E04B
:104680000E94B51568E1CE0101960E941F1460E0FA
:10469000CE0184960E948B116FE377E0CE010796DE
:1046A0000E946516F501648175810E94E31166E53B
:1046B00077E00E946516AE0149575F4FBE01675E05
:1046C0007F4FC8010E941C1730E020E050E040E01E
:1046D000B801C7010E947018C8010E940F19450156
:1046E000FEE08F0E911C20E1A20EB11CD4018C9132
:1046F0000E94D702892B31F4F50180810E94D702F4
:10470000892BA1F382E18E9DF0018F9DF00D112484
:10471000ED53F44F81E0268537852130310509F0CE
:1047200080E00E94D702892B09F447C022E12E9D28
:10473000C0012F9D900D11249C012D53344F590120
:10474000D9011496ED91FC91A781B085ED92FC9270
:10475000D90112968D919C91139723853485821BE4
:10476000930B13969C938E93129760E0CE018496E0
:104770000E948B116EE577E0CE0107960E946516C8
:10478000F501648175810E94E31169EC76E00E9475
:104790006516AE0149575F4FBE01675E7F4FC80186
:1047A0000E941C1730E020E050E040E0B801C70153
:1047B0000E947018C8010E940F19CE0101960E9434
:1047C00073196DE677E08BE19AE00E94CC1582E1E7
:1047D0008E9DF0018F9DF00D1124ED53F44F048058
:1047E000F581E02D0780F085E02D80819181019693
:1047F0000E94811560E0C1010E948B116DE578E097
:104800008AE390E08C0F9D1F06960E94651622E1B8
:104810002E9DF0012F9DF00D1124ED53F44F628178
:1048200073810E9474146BE378E00E946516A801FE
:104830006AE370E06C0F7D1F685E7F4FCE010196CA
:104840000E941C1730E020E050E040E0BE016F5FA6
:104850007F4FC7010E947018CE0101960E940F1968
:10486000DD2009F4B3C288E698E00E94B515F1E0B6
:10487000EF1AF108ABC26CEB75E0CE0189579F4F80
:104880000E944617A801BE0169577F4FCE010196CD
:104890000E941C1730E020E050E040E0BE016F5F56
:1048A0007F4FC7010E947018CE0101960E940F1918
:1048B0004501FEE08F0E911C20E1A20EB11CD40137
:1048C0008C910E94D702892B31F4F50180810E94DE
:1048D000D702892BA1F382E18E9DF0018F9DF00D0F
:1048E0001124ED53F44F81E02685378521303105C1
:1048F00009F080E00E94D7025C0168E1CE010196D8
:104900000E941F1460E0CE0184960E948B11AB2898
:10491000E9F563E076E0CE0107960E946516AE01E8
:1049200042575F4FBE01675E7F4FC8010E941C1750
:1049300022E12E9DC0012F9D900D11249C012D532D
:10494000344F590130E020E050E040E0B801D5019B
:104950008D919C910E947018C8010E940F19F50159
:1049600082819381C29793838283DD24D39482E1F1
:104970008E9DF0018F9DF00D1124ED53F44F15869F
:104980001486CE0101960E94731959CE22E12E9D04
:10499000C0012F9D900D11249C012D53344F5901BE
:1049A0000E94B72925E130E040E050E00E94A22BB0
:1049B0002B013C013FEF431A530A630A730AC201F9
:1049C00062E070E081309105C1F064E070E0823017
:1049D000910599F066E070E08330910571F068E030
:1049E00070E08430910549F06AE070E0853091050F
:1049F00021F0069789F56CE070E0C5010E949A19D4
:104A00006AE576E0CE0107960E946516B2010E9423
:104A1000741460E776E00E946516AE0142575F4F5E
:104A2000BE01675E7F4FC8010E941C1782E18E9D08
:104A3000F0018F9DF00D1124ED53F44F30E020E094
:104A400050E040E0B801808191810E947018C80157
:104A50000E940F19D12C8BCF61E276E0CE01079630
:104A60000E946516AE0142575F4FBE01675E7F4FE1
:104A7000C8010E941C1730E020E050E040E0B8017F
:104A8000D5018D919C910E947018C8010E940F1948
:104A9000CE0101960E947319D12CD1CD8BE796E0FF
:104AA0000E94B51584E796E00E94B515AE014F5FF0
:104AB0005F4F63E876E0CE0189579F4F0E947C17D5
:104AC000A801BE0169577F4FCE0101960E941C17B5
:104AD00030E020E050E040E0BE016F5F7F4FC70153
:104AE0000E947018CE0101960E940F195401BEE079
:104AF000AB0EB11CF50180810E94D702892BD1F346
:104B000084E996E00E94B51567EA76E08BE19AE0C9
:104B10000E94CC1590E080E00E94811560ED77E066
:104B200080E090E00E9453030E94B72925E130E025
:104B300040E050E00E94A22B2B013C01FFEF4F1AF6
:104B40005F0A6F0A7F0A63EB76E08BE19AE00E94CE
:104B5000CC15C2010E94811521E04216510409F0D2
:104B600054C182E090E0D40119969C938E931897DB
:104B7000DD24D39468E1CE0101960E941F1460E009
:104B8000CE0184960E948B116CEB76E0CE010796E5
:104B90000E94651642E14E9D90014F9D300D1124FB
:104BA000A9014D53544F5A01DA0118966D917C9129
:104BB0000E94741468EC76E00E946516AE014257BC
:104BC0005F4FBE01675E7F4FC8010E941C1721E046
:104BD00030E042E050E0B801F501808191810E940F
:104BE0007018C8010E940F198BEC96E00E94B51551
:104BF0006BED76E08BE19AE00E94CC158D2D90E074
:104C00000E948115D50118968D909C90CE01019639
:104C10000E94731984E794E00E94B515F50186811E
:104C20009781BC01680D791D77836683408151812E
:104C30000E94D415D50116968D919C9117978C30B2
:104C4000910594F10C9717969C938E931697129654
:104C50008D919C91139788539F4F13969C938E939D
:104C60001297AE014F5F5F4F62E874E0C8010E9487
:104C70007C17AE0142575F4FB801CE0101960E94EA
:104C80001C1721E030E041E050E0BE016F5F7F4F34
:104C9000F501808191810E947018CE0101960E94D9
:104CA0000F19C8010E940F1922E12E9DC0012F9DEE
:104CB000900D11249C012D53344F5901D9011696A2
:104CC0002D913C9117974FE0429FC001439F900D5B
:104CD00011248050954F15969C938E93149768E1FC
:104CE000CE0101960E941F1460E0CE0184960E94BE
:104CF0008B116BEB74E0CE0107960E946516F501EF
:104D0000648175810E94E31169EC76E00E9465166A
:104D1000AE0142575F4FBE01675E7F4FC8010E94E0
:104D20001C1730E020E050E040E0B801D5018D9143
:104D30009C910E947018C8010E940F19CE01019623
:104D40000E94731960ED77E080E090E00E945303C9
:104D5000CE0189579F4F0E940F19DD2009F474CCB2
:104D600087EE96E00E94B515F50182859385019640
:104D70009387828760E0039709F0E9C0C1010E9430
:104D80008B1168EF76E08AE390E08C0F9D1F06960A
:104D90000E946516A8016AE370E06C0F7D1F685ED3
:104DA0007F4FCE0101960E941C1730E020E050E0BA
:104DB00040E0BE016F5F7F4FC7010E947018CE01B7
:104DC00001960E940F19C5010E941419CE01CA96BE
:104DD0000E9473192FEFE21AF20A34E0E316F1048D
:104DE00009F085CB1092CE0B1092CD0B1092E00BF8
:104DF0001092DF0B1092F20B1092F10B1092040C38
:104E00001092030C0E9494044DCB83E090E0F401D7
:104E1000B2E04B16510409F497C0F5E04F16510467
:104E200084F484E090E0D40119969C938E931897B3
:104E3000DD24D394B4E04B16510409F49BCED12C5D
:104E400099CEE7E04E16510474F485E090E0D40169
:104E500019969C938E931897DD24D394B6E04B1645
:104E6000510469F787CEEAE04E16510474F486E0E7
:104E700090E0D40119969C938E931897DD24D394D7
:104E8000B9E04B165104D9F675CEEDE04E1651043B
:104E900074F487E090E0D40119969C938E93189750
:104EA000DD24D394BCE04B16510449F663CEE0E117
:104EB0004E1651047CF488E090E0D40119969C933E
:104EC0008E931897DD24D394BFE04B16510409F05C
:104ED000B6CF50CEE2E14E1651047CF489E090E06A
:104EE000D40119969C938E931897DD24D394B1E145
:104EF0004B16510409F0A3CF3DCE82E1E4E14E16FA
:104F000051049CF48E9DF0018F9DF00D1124ED5302
:104F1000F44F8AE090E091878087DD24D394F3E119
:104F20004F16510409F08BCF25CE8E9DF0018F9D39
:104F3000F00D1124ED53F44F8BE090E024E1421684
:104F4000510411F08CE090E09187808778CFC10107
:104F50000E948B116FE177E08AE390E08C0F9D1F38
:104F600006960E946516A8016AE370E06C0F7D1F2B
:104F7000685E7F4FCE0101960E941C1730E020E052
:104F800050E040E0BE016F5F7F4FC7010E94701884
:104F9000CE01019657CB8FE797E00E94B51568E1E7
:104FA000CE0101960E941F1460E0CE0184960E94FB
:104FB0008B11F501A481B58117964D915C911897DD
:104FC000FA0120813181F50180819181281739070B
:104FD00009F48CC019962D913C9182819381821B9A
:104FE000930B93838283DA018D919C91989EF001BB
:104FF000999EF00D1124ED53F44F82819381820F1D
:10500000931F938382836AE877E0CE0107960E941C
:105010006516D5011496ED91FC91618572850E940B
:10502000741469E977E00E9465164C01D501149665
:10503000ED91FC91A780B084B2E0AB0EB11CBC0135
:10504000CE0189579F4F0E94C812BF92AF928DEA3E
:1050500097E09F938F931F9284E18F931F930F93F9
:105060000E94712C9C01990F440B550BB801C4018F
:105070000E940D12D401ED91FC9136970190F081C0
:10508000E02DE80DF91D838194810FB6F894DEBF01
:105090000FBECDBF96FF03C0C4010E94A21269ECEF
:1050A00076E0C4010E946516AE0149575F4FBE010C
:1050B000675E7F4FC8010E941C1782E18E9DF00140
:1050C0008F9DF00D1124ED53F44F30E020E050E0BF
:1050D00040E0B801808191810E947018C8010E944F
:1050E0000F19CE0101960E94731984CB60EB77E013
:1050F000CE0107960E946516AE0149575F4FBE016B
:10510000675E7F4FC8010E941C1730E020E050E02E
:1051100040E0B801D5018D919C91DECF84ED97E000
:105120000E94B515F50164817581AE014F5F5F4F37
:10513000CE0182579F4F0E941C1763EE74E0CE0190
:1051400082579F4F0E94C41A882309F49DC0AE0164
:105150004F5F5F4F63EE77E0CE0189579F4F0E940C
:105160007C17A801BE0169577F4FCE0101960E94AE
:105170001C1730E020E050E040E0BE016F5F7F4F41
:10518000C7010E947018CE0101960E940F19FEE01F
:10519000AF0EB11CD5018C910E94D702892BD1F39F
:1051A000C8010E940F14F80184819581892B11F0A8
:1051B000158214820E94B72922E030E040E050E0DE
:1051C0000E94A22B6F5F7F4F8F4F9F4F6130710501
:1051D00009F03FC06EE178E0C8010E94461782E105
:1051E0008E9DF0018F9DF00D1124ED53F44F8281BF
:1051F0009381C29693838283AE014B565F4FB80171
:10520000CE0101960E941C1782E18E9DF0018F9DB8
:10521000F00D1124ED53F44F30E020E050E040E079
:10522000BE016F5F7F4F808191810E947018CE0117
:1052300001960E940F19C8010E940F19CE018957CB
:105240009F4F0E940F19CE0182579F4F0E940F1946
:10525000D1CA6230710581F66DE378E0C8010E9421
:10526000461782E18E9DF0018F9DF00D1124ED53C4
:10527000F44F8281938188539F4F9383828380E090
:105280009BE095838483B8CF65E375E0CE018257B8
:105290009F4F0E94C41A8823B1F2C5010E941419BD
:1052A000D2CFCF93DF93C4EBDBE02F97CE010E94E8
:1052B0000F198BE0C030D807C1F784EB9BE00E9448
:1052C0000F1981E49CE00E94201187E19CE0DF91AE
:1052D000CF910C94D9108F929F92AF92BF92CF92A0
:1052E000DF92EF92FF92CF93DF93EC016881798197
:1052F0008A819B81611571058105910521F464E224
:1053000079ED8BE597E02DE133EF41E050E00E942D
:10531000A22B49015A019B01AC01A7EAB1E40E940A
:10532000C12B6B017C01ACEEB4EFA50194010E948E
:10533000CF2BC60ED71EE81EF91EF7FE06C081E071
:10534000C81AD108E10880E8F80AC882D982EA823E
:10535000FB82C701B6019F77DF91CF91FF90EF905D
:10536000DF90CF90BF90AF909F908F9008958F92D5
:105370009F92AF92BF92CF92DF92EF92FF92609195
:105380000002709101028091020290910302611566
:1053900071058105910521F464E279ED8BE597E0D3
:1053A0002DE133EF41E050E00E94A22B49015A0168
:1053B0009B01AC01A7EAB1E40E94C12B6B017C0107
:1053C000ACEEB4EFA50194010E94CF2BC60ED71E00
:1053D000E81EF91EF7FE06C081E0C81AD108E108F0
:1053E00080E8F80AC0920002D0920102E092020224
:1053F000F0920302C701B6019F77FF90EF90DF9014
:10540000CF90BF90AF909F908F90089560930002CF
:1054100070930102809302029093030208950F9308
:105420001F93CF93DF93009759F46115710541F4F1
:10543000F0E0E0E0CF01DF91CF911F910F9108954F
:105440008B01EC016EE070E081E090E00E945A2A4E
:10545000FC01892B69F380E883830115110571F044
:105460001387028781E8838380916F0C9091700C81
:10547000892B21F4F093700CE0936F0C2097D1F2FC
:10548000D187C0878381826083838091710C9091E2
:10549000720C892B79F6F093720CE093710C809169
:1054A000730C9091740C892B29F6F093740CE09393
:1054B000730CC0CF0F931F93CF93DF93869F800110
:1054C000879F100D969F100D1124C8010E94762A07
:1054D000EC01009729F0A80170E060E00E949B2B8E
:1054E000CE01DF91CF911F910F9108950F931F93DC
:1054F000CF93DF938230910510F482E090E0E09149
:10550000770CF091780C30E020E0B0E0A0E030972C
:1055100099F42115310509F44AC0281B390B2430B0
:105520003105D8F58A819B816115710589F1FB01EF
:1055300093838283FE0111C04081518102811381D6
:1055400048175907E0F04817590799F4109761F088
:1055500012960C93129713961C933296CF01DF91FB
:10556000CF911F910F9108950093770C1093780CB1
:10557000F4CF2115310551F04217530738F0A90136
:10558000DB019A01BD01DF01F801C1CFEF01F9CFC5
:105590009093780C8093770CCDCFFE01E20FF31F30
:1055A000819391932250310939832883D7CF209159
:1055B000750C3091760C232B41F42091060230912A
:1055C00007023093760C2093750C209104023091E1
:1055D00005022115310541F42DB73EB7409108026F
:1055E00050910902241B350BE091750CF091760C5B
:1055F000E217F307A0F42E1B3F0B2817390778F0AA
:10560000AC014E5F5F4F2417350748F04E0F5F1F08
:105610005093760C4093750C819391939FCFF0E05B
:10562000E0E09CCFCF93DF930097E9F0FC01329745
:1056300013821282A091770CB091780CED0130E0CA
:1056400020E01097A1F420813181820F931F2091D7
:10565000750C3091760C2817390709F061C0F0936A
:10566000760CE093750CDF91CF910895EA01CE1787
:10567000DF07E8F54A815B819E0141155105B1F7CD
:10568000E901FB83EA8349915991C40FD51FEC17B7
:10569000FD0761F4808191810296840F951FE901D5
:1056A00099838883828193819B838A83F0E0E0E001
:1056B00012968D919C9113970097B9F52D913C917D
:1056C0001197CD010296820F931F2091750C309196
:1056D000760C2817390739F6309751F51092780C67
:1056E0001092770CB093760CA093750CBCCFD3833B
:1056F000C28340815181840F951FC817D90761F477
:105700004E5F5F4F88819981480F591F51834083B5
:105710008A819B81938382832115310509F0B0CF63
:10572000F093780CE093770C9ECFFD01DC01C0CFA5
:1057300013821282D7CFDC0101C06D9341505040DB
:10574000E0F70895052E97FB1EF400940E94B92BF4
:1057500057FD07D00E94D42B07FC03D04EF40C94C5
:10576000B92B50954095309521953F4F4F4F5F4F46
:10577000089590958095709561957F4F8F4F9F4FBD
:1057800008950E94F62BA59F900DB49F900DA49FA5
:10579000800D911D11240895B7FF0C94C12B0E9418
:1057A000C12B821B930B0895A1E21A2EAA1BBB1BCF
:1057B000FD010DC0AA1FBB1FEE1FFF1FA217B307DD
:1057C000E407F50720F0A21BB30BE40BF50B661FF3
:1057D000771F881F991F1A9469F7609570958095B7
:1057E00090959B01AC01BD01CF010895A29FB0012E
:1057F000B39FC001A39F700D811D1124911DB29F05
:10580000700D811D1124911D0895DB018F939F93CD
:105810000E94C12BBF91AF91A29F800D911DA39FAC
:10582000900DB29F900D1124089597FB072E16F44A
:10583000009407D077FD09D00E94382C07FC05D0D2
:105840003EF4909581959F4F0895709561957F4F97
:105850000895EE0FFF1F881F8BBF0790F691E02D74
:1058600019940E94F62BB7FF0895821B930B08959D
:10587000AA1BBB1B51E107C0AA1FBB1FA617B70776
:1058800010F0A61BB70B881F991F5A95A9F7809592
:105890009095BC01CD01089581E090E0F8940C94BE
:1058A0005D2F6817790768F4FB01DC01E40FF51F31
:1058B000A40FB51F02C002900E9241505040D8F77D
:1058C00008950C94BB2EFB01DC014150504030F098
:1058D0008D910190801919F40020B9F7881B990B5C
:1058E00008950F931F93CF93DF93CDB7DEB72E9715
:1058F0000FB6F894DEBF0FBECDBF0E891F89888D0D
:10590000998D26E02C831A83098397FF02C080E0DB
:1059100090E801979E838D83AE01445E5F4F6A8D50
:105920007B8DCE0101960E94AE2C4D815E8157FD8C
:105930000AC02F813885421753070CF49A01020FD1
:10594000131FF80110822E960FB6F894DEBF0FBE1B
:10595000CDBFDF91CF911F910F9108952F923F926C
:105960004F925F926F927F928F929F92AF92BF926F
:10597000CF92DF92EF92FF920F931F93CF93DF931B
:1059800000D000D000D01F921F92CDB7DEB77C01AF
:105990003B018A01FC0117821682838181FFDDC1F0
:1059A000CE0101965C01F7019381F30193FD85918E
:1059B00093FF81913F01882309F453C1853239F463
:1059C00093FD859193FF81913F01853229F4B701C1
:1059D00090E00E94CF2EE7CF912C212C312CFFE1BB
:1059E000F31538F08B3211F190F4803209F18332E3
:1059F00029F137FC3CC020ED280F2A3050F536FE47
:105A000020C08AE0989E200D1124922E06C08D326F
:105A100091F0803371F7689430F8F30193FD85912C
:105A200093FF81913F018111DACF21C0689431F851
:105A3000689432F8F2CF689433F8EFCF689434F872
:105A4000ECCFEAE02E9E200D1124222E689435F82A
:105A5000E4CF8E3229F436FC04C1689436F8DDCFE9
:105A60008C3619F4689437F8D8CF8836B1F2982F6D
:105A70009F7D95549330E0F08336A1F18337C1F1D7
:105A8000833509F063C02801F2E04F0E511CF80184
:105A9000C080D180692D70E036FC02C06FEF7FEFCF
:105AA000C6010E94B02E4C01689437F882010AC0EA
:105AB0000C5F1F4FFFE3F98388248394912C6501C9
:105AC000E89437F833FE2DC0522C8114910471F5FF
:105AD000552009F468CFB70180E290E00E94CF2EF4
